:100000000C94B7010C949E0D0C94CB0D0C94DF0155
:100010000C94DF010C94DF010C94DF010C945A1056
:100020000C94DF010C94DF010C94DF010C94DF01D0
:100030000C94DF010C94DF010C94DF010C94DF01C0
:100040000C94F80D0C94DF010C94DF010C94DF018B
:100050000C94DF010C94DF010C94DF010C94DF01A0
:100060000C94DF010C94DF01A2000000ECA500005D
:10007000005CB0000000DFB5000000E4B700000045
:10008000A5E4000000E1F1000000EEF6000000EF42
:10009000F7000000FDFC000000F591030000419214
:1000A000030000429503000045960300005A9703A1
:1000B00000004899030000499A0300004B9C03008C
:1000C000004D9D0300004E9F0300004FA103000060
:1000D00050A3030000F6A403000054A50300005938
:1000E000A703000058A9030000F4B1030000E0B228
:1000F000030000E2B5030000E3B8030000F2BC0314
:100100000000E4BF0300006FC0030000F7C103005C
:1001100000E6C3030000E5010400004510040000F0
:10012000411204000042140400004415040000457C
:1001300017040000331A0400004B1C0400004D1D7E
:10014000040000481E0400004F2004000050210459
:100150000000432204000054230400005925040039
:1001600000582C04000062300400006135040000D7
:10017000653E0400006F3F0400006E400400007004
:1001800041040000634304000079450400007851F5
:1001900004000065102000002E112000002E122007
:1001A00000002E132000002E142000002E15200029
:1001B000002E26210000F4902100007F92210000F3
:1001C0007911220000F6122200002E1A220000E807
:1001D0001E220000F3C5220000A501300000A40289
:1001E000300000A103300000220C300000A20D30CE
:1001F0000000A3A1300000A7A2300000B1A330008E
:1002000000A8A4300000B2A5300000A9A63000006C
:10021000B3A7300000AAA8300000B4A9300000AB9A
:10022000AA300000B5AB300000B6AD300000B7AF6B
:10023000300000B8B1300000B9B3300000BAB530BA
:100240000000BBB7300000BCB9300000BDBB3000BF
:1002500000BEBD300000BFBF300000C0C130000094
:10026000C1C3300000AFC4300000C2C6300000C3BC
:10027000C8300000C4CA300000C5CB300000C6CC76
:10028000300000C7CD300000C8CE300000C9CF30EC
:100290000000CAD2300000CBD5300000CCD83000EE
:1002A00000CDDB300000CEDE300000CFDF300000BC
:1002B000D0E0300000D1E1300000D2E2300000D3C5
:1002C000E3300000ACE4300000D4E5300000ADE6DF
:1002D000300000D5E7300000AEE8300000D6E9304D
:1002E0000000D7EA300000D8EB300000D9EC300035
:1002F00000DAED300000DBEF300000DCF23000000F
:10030000A6F3300000DDFB300000A5FC300000B09B
:1003100000000000240027002A0000000000250043
:1003200028002B0000000000230026002900040400
:10033000040404040404020202020202030303038D
:100340000303010204081020408001020408102069
:100350000102040810200000000700020100000351
:10036000040600000000000000000200A90511249E
:100370001FBECFEFD8E0DEBFCDBF11E0A0E0B1E0FF
:10038000EEECF6E202C005900D92A23CB107D9F75F
:1003900012E0A2ECB1E001C01D92AB30B107E1F771
:1003A00013E0CEE6D3E004C02297FE010E942A1398
:1003B000CC36D107C9F70E94D20F0C9465130C9468
:1003C0000000CF93DF93BC018230910510F462E00E
:1003D00070E0A0910902B0910A02ED01E0E0F0E0C6
:1003E00040E050E021C0888199818617970769F421
:1003F0008A819B81309719F09383828304C0909304
:100400000A0280930902FE0134C06817790738F4A4
:100410004115510519F08417950708F4AC01FE0148
:100420008A819B819C01E9012097E9F641155105DC
:10043000A9F1CA01861B970B049708F4BA01E0E002
:10044000F0E02AC08D919C91119784179507F9F4DB
:100450006417750781F412968D919C9113973097CC
:1004600019F09383828304C090930A028093090257
:10047000FD0132964CC0CA01861B970BFD01E80FA7
:10048000F91F6193719302978D939C9340C0FD0176
:10049000828193819C01D9011097A1F68091070276
:1004A00090910802892B41F48091AC019091AD01AB
:1004B00090930802809307024091AE015091AF01E2
:1004C0004115510541F44DB75EB78091AA01909155
:1004D000AB01481B590B2091070230910802CA0159
:1004E000821B930B8617970780F0AB014E5F5F4F1F
:1004F0008417950750F0420F531F50930802409302
:100500000702F9016193719302C0E0E0F0E0CF01CE
:10051000DF91CF910895CF93DF93009709F450C0F6
:10052000EC0122971B821A82A0910902B0910A0263
:10053000109709F140E050E0AC17BD0708F1BB830C
:10054000AA83FE0121913191E20FF31FAE17BF077D
:1005500079F48D919C911197280F391F2E5F3F4F91
:100560003983288312968D919C9113979B838A835C
:100570004115510571F4D0930A02C093090220C0BD
:1005800012968D919C911397AD01009711F0DC01AB
:10059000D3CFFA01D383C28321913191E20FF31FAC
:1005A000CE17DF0769F488819981280F391F2E5FE4
:1005B0003F4FFA01318320838A819B819383828319
:1005C000DF91CF9108950F931F93CF93DF93182F4F
:1005D000092FE82FF92FDF010D900020E9F7CD0159
:1005E0008E1B9F0B0E94E101EC01009721F0612F0F
:1005F000702F0E940103CE01DF91CF911F910F91C7
:100600000895FB01DC0101900D920020E1F70895AF
:10061000AEE0B0E0EEE0F3E00C943C130D891E89EF
:1006200086E08C831A8309838FEF9FE79E838D83F7
:100630009E01275E3F4FCE0101966F89788DA901FB
:100640000E942C032F813885020F131FF80110829E
:100650002E96E4E00C945813ABE0B0E0E2E3F3E054
:100660000C942E133C012B015A01FC0117821682B7
:10067000838181FD03C06FEF7FEFC6C19AE0892EB1
:100680001E010894211C311CF3012381F20123FD7A
:10069000859123FF81912F01882309F4B2C185320E
:1006A00039F423FD859123FF81912F01853229F4AF
:1006B00090E0B3010E941F05E7CF982FFF24EE249E
:1006C0009924FFE1FF15D0F09B3269F09C3228F4A9
:1006D000903259F0933291F40EC09D3249F090332C
:1006E00069F441E024C052E0F52A84E0F82A28C0E9
:1006F00098E0F92A25C0E0E1FE2A22C0F7FC29C0D3
:10070000892F80538A3070F4F6FE05C0989C902C97
:100710001124980E15C0E89CE02C1124E80EF0E29C
:10072000FF2A0EC09E3229F4F6FC6BC140E4F42A85
:1007300007C09C3619F450E8F52A02C0983649F4EF
:10074000F20123FD959123FF91912F01992309F047
:10075000B8CF892F8554833018F08052833038F415
:1007600044E050E0A40EB51E5FE359830FC09336FA
:1007700031F0933779F0933509F056C020C0F50178
:100780008081898342E050E0A40EB51E610101E042
:1007900010E012C0F501C080D180F6FC03C06FEFFD
:1007A0007FEF02C0692D70E042E050E0A40EB51E5C
:1007B000C6010E9414058C015FE7F52214C0F50103
:1007C000C080D180F6FC03C06FEF7FEF02C0692DBF
:1007D00070E042E050E0A40EB51EC6010E9409057B
:1007E0008C0150E8F52AF3FE07C01AC080E290E0C1
:1007F000B3010E941F05EA948E2D90E00817190797
:10080000A8F30EC0F601F7FC8591F7FE81916F0108
:1008100090E0B3010E941F05E110EA9401501040DE
:100820000115110579F7EAC0943611F0993669F58A
:10083000F7FE08C0F501208131814281538184E0B7
:1008400090E00AC0F501808191819C01442737FD29
:100850004095542F82E090E0A80EB91E9FE6F92241
:1008600057FF09C050954095309521953F4F4F4F08
:100870005F4FE0E8FE2ACA01B901A1012AE030E099
:100880000E944B05D82ED21840C0953729F41F2D51
:100890001F7E2AE030E01DC01F2D197F9F3661F0BA
:1008A000903720F4983509F0ACC00FC0903739F07C
:1008B000983709F0A6C004C028E030E00AC01061F3
:1008C00014FD146020E130E004C014FD166020E146
:1008D00032E017FF08C0F501608171818281938148
:1008E00044E050E008C0F50180819181BC0180E0C6
:1008F00090E042E050E0A40EB51EA1010E944B051D
:10090000D82ED2188FE7F82EF122F6FE0BC05EEF3C
:10091000F522D91438F4F4FE07C0F2FC05C08FEEBE
:10092000F82202C01D2D01C0192DF4FE0DC0FE01DC
:10093000ED0DF11D8081803319F499EEF92208C084
:100940001F5FF2FE05C003C08F2D867809F01F5F80
:100950000F2DF3FC14C0F0FE0FC01E1510F09D2CDF
:100960000BC09D2C9E0C911A1E2D06C080E290E0BB
:10097000B3010E941F051F5F1E15C0F304C01E15A2
:1009800010F4E11A01C0EE2404FF0FC080E390E0F0
:10099000B3010E941F0502FF1DC001FD03C088E7CF
:1009A00090E00EC088E590E00BC0802F867891F033
:1009B00001FF02C08BE201C080E2F7FC8DE290E013
:1009C000B3010E941F0506C080E390E0B3010E94BE
:1009D0001F059A94D914C0F3DA94F101ED0DF11DBD
:1009E000808190E0B3010E941F05DD20A9F706C0B9
:1009F00080E290E0B3010E941F05EA94EE20C1F767
:100A000043CEF30166817781CB012B96E2E10C9412
:100A10004A13FC010590615070400110D8F7809591
:100A200090958E0F9F1F0895FC01615070400190BA
:100A30000110D8F7809590958E0F9F1F08950F9302
:100A40001F93CF93DF938C01EB018B8181FF1BC040
:100A500082FF0DC02E813F818C819D81281739072F
:100A600064F4E881F9810193F983E88306C0E8859D
:100A7000F985802F0995892B31F48E819F8101960C
:100A80009F838E8302C00FEF1FEFC801DF91CF91CC
:100A90001F910F910895FA01AA27283051F12031B2
:100AA00081F1E8946F936E7F6E5F7F4F8F4F9F4F02
:100AB000AF4FB1E03ED0B4E03CD0670F781F891F44
:100AC0009A1FA11D680F791F8A1F911DA11D6A0F12
:100AD000711D811D911DA11D20D009F468943F91C5
:100AE0002AE0269F11243019305D3193DEF6CF01C4
:100AF0000895462F4770405D4193B3E00FD0C9F78A
:100B0000F6CF462F4F70405D4A3318F0495D31FDF6
:100B10004052419302D0A9F7EACFB4E0A695979549
:100B2000879577956795BA95C9F70097610571051F
:100B300008959B01AC010A2E069457954795379569
:100B40002795BA95C9F7620F731F841F951FA01DC3
:100B50000895CF92EF920F9380ED91E067E048E027
:100B600029E00AE05BE0E52E3CE0C32E0E94420D46
:100B70000F91EF90CF9008951F93DF93CF93CDB750
:100B8000DEB7C154D0400FB6F894DEBF0FBECDBF64
:100B9000182F80ED91E060E040E00E94550C8091BC
:100BA000C201882319F0813081F511C000D000D036
:100BB00000D0EDB7FEB73196CE010196ADB7BEB706
:100BC00012969C938E93119780E091E010C000D014
:100BD00000D000D0EDB7FEB73196CE010196ADB78B
:100BE000BEB712969C938E93119782E191E0938306
:100BF0008283148315820E9408038DB79EB70696E0
:100C00000FB6F8949EBF0FBE8DBFCE01019660ED6A
:100C100071E00E948D091092CF01CF5BDF4F0FB6BC
:100C2000F894DEBF0FBECDBFCF91DF911F91089525
:100C300080ED91E060E040E00E94550C8091C2019F
:100C4000813041F0813018F0823089F40AC084E2AA
:100C500091E002C085E391E060ED71E00E948D09B2
:100C6000089586E491E060ED71E00E948D09089599
:100C7000AF92BF92CF92DF92EF92FF920F931F93AA
:100C8000DF93CF93CDB7DEB7A1970FB6F894DEBF51
:100C90000FBECDBFE090CB01F090CC010091CD0113
:100CA0001091CE018DB79EB70C970FB6F8949EBFEA
:100CB0000FBE8DBFCDB6DEB60894C11CD11C5E013F
:100CC0000894A11CB11CEDB7FEB7B282A18287E5E2
:100CD00091E0F60193838283C801B70128EE33E0E7
:100CE00040E050E00E94EB12F601248335834683F6
:100CF0005783C801B70128EE33E040E050E00E947E
:100D0000EB1224E630E040E050E00E94EB12F601E6
:100D100020873187428753870E9408038DB79EB78B
:100D20000C960FB6F8949EBF0FBE8DBF00ED11E07C
:100D3000C80168E041E00E94550CC501B8010E945D
:100D40008D09A1960FB6F894DEBF0FBECDBFCF912F
:100D5000DF911F910F91FF90EF90DF90CF90BF90A8
:100D6000AF900895EF92FF920F931F937C0100EDD7
:100D700011E0C80160E041E00E94550CC701B801D4
:100D80000E948D091F910F91FF90EF90089582E0CE
:100D900061E00E942B0F83E061E00E942B0F8EE048
:100DA00061E00E942B0F8FE061E00E942B0F80E139
:100DB00061E00E942B0F81E161E00E942B0F82E134
:100DC00061E00E942B0F83E161E00E942B0F84E120
:100DD00061E00E942B0F8DE061E00E94EC0E86E046
:100DE00061E00E94EC0E85E061E00E94EC0E80E084
:100DF0006FEF76E042E050E00E947B0D0895809115
:100E0000CF018823F9F48EE00E947F0F892B11F423
:100E100081E00DC08FE00E947F0F892B11F482E0EA
:100E200006C080E10E947F0F892B21F483E080932C
:100E3000CF01089581E10E947F0F892B19F484E08E
:100E40008093CF0108950E94400E2091C7013091F8
:100E5000C8014091C9015091CA01621B730B840BF8
:100E6000950B6093CB017093CC018093CD0190934F
:100E7000CE010E9438060895AF92BF92CF92DF92C2
:100E8000EF92FF920F931F93DF93CF93CDB7DEB70F
:100E9000A1970FB6F894DEBF0FBECDBF8091C701FA
:100EA0009091C801A091C901B091CA015E01089456
:100EB000A11CB11C0097A105B10509F453C00E9403
:100EC000400E7B018C018091C7019091C801A091D7
:100ED000C901B091CA01E81AF90A0A0B1B0BE0928A
:100EE000CB01F092CC010093CD011093CE018DB7D0
:100EF0009EB70C970FB6F8949EBF0FBE8DBFCDB6B0
:100F0000DEB60894C11CD11CEDB7FEB7B282A18237
:100F100087E591E0F60193838283C801B70128EE4B
:100F200033E040E050E00E94EB12F6012483358369
:100F300046835783C801B70128EE33E040E050E014
:100F40000E94EB12F60160877187828793870E9467
:100F500008038DB79EB70C960FB6F8949EBF0FBED0
:100F60008DBF05C0C5016DE571E00E94010380EDF4
:100F700091E068E041E00E94550CCE01019660EDE1
:100F800071E00E948D09A1960FB6F894DEBF0FBEE6
:100F9000CDBFCF91DF911F910F91FF90EF90DF9028
:100FA000CF90BF90AF9008951F93182F85E068EF02
:100FB00076E028EE33E040E050E00E94B61086E094
:100FC00061E00E942B0F86E691E00E94B206812F1D
:100FD0000E94BC0568EB7BE080E090E00E944E0E32
:100FE00086E060E00E942B0F1F9108951F93182F39
:100FF00086E061E00E942B0F812F0E94BC0587E7ED
:1010000091E00E94B2060E943C0785E06BED79E01A
:1010100028EE33E040E050E00E94B6101092CF017D
:1010200060ED77E080E090E00E944E0E82E10E9449
:101030007F0F892B21F41092CF0180E00EC083E155
:101040000E947F0F892B21F41092CF0181E005C00F
:1010500064E670E080E090E0E7CF1F910895EF92A2
:10106000FF920F931F93CF93DF938C01009759F05A
:101070001092CB011092CC011092CD011092CE01B2
:101080000E94400E0EC00E94400E2091CB01309174
:10109000CC014091CD015091CE01621B730B840BAA
:1010A000950B6093C7017093C8018093C901909319
:1010B000CA018091C301882349F085E068EB7BE099
:1010C00028EE33E040E050E00E94B6108DE061E091
:1010D0000E942B0F86E060E00E942B0F0E941806F2
:1010E00088E891E00E94B206C8EED3E011C00E94E9
:1010F000230769E170E080E090E00E944E0E83E1FA
:101100000E947F0F892B21F485E06CED75E030C0E3
:101110008091CF018823A1F58091C6019801281BF9
:1011200031092C9FC0012D9F900D3C9F900D1124E3
:10113000A0E0B0E02091CB013091CC014091CD01F5
:101140005091CE01281739074A075B0780F25AC031
:101150000E94230769E170E080E090E00E944E0E5B
:1011600083E10E947F0F892BC1F485E068EF76E070
:1011700024EF31E040E050E00E94B6101FEF3AC08B
:1011800088EE93E09C01029FC001039F900D129F87
:10119000900D11247C0100E010E08091CF018823A4
:1011A00071F48091CB019091CC01A091CD01B091CF
:1011B000CE018E159F05A007B10750F22DC00E94E9
:1011C000F607182F8823B1F08DE060E00E942B0F06
:1011D00086E060E00E942B0F1092C7011092C801B8
:1011E0001092C9011092CA0168EE73E080E090E0AD
:1011F0000E944E0E812FDF91CF911F910F91FF9092
:10120000EF90089585E069E478E028EE33E040E06F
:1012100050E00E94B610B4CF85E068EB7BE028EE8A
:1012200033E040E050E00E94B6101FEFCDCF8DE0DC
:1012300060E00E942B0F86E060E00E942B0F89E99E
:1012400091E00E94B2069091CF01992359F08091CC
:10125000C301882321F0892F0E94D40703C0892F5E
:101260000E94F60782E10E947F0F892B79F480911A
:10127000C40190E00E942F088823A1F48091C50149
:1012800090E00E942F088823C9F3089583E10E940B
:101290007F0F892B39F064E670E080E090E00E94D7
:1012A0004E0ED1CF08951092CF011092C701109227
:1012B000C8011092C9011092CA010E94180606C006
:1012C00064E170E080E090E00E944E0E83E10E94B5
:1012D0007F0F892BA9F30E941709089580ED91E0F3
:1012E00060E142E020E00E948C0C0E94C706109250
:1012F000CB011092CC011092CD011092CE01109230
:10130000C20181E08093C3018CE38093C40184E136
:101310008093C5011092C60108952F923F924F927B
:101320005F926F927F928F929F92AF92BF92CF9275
:10133000DF92EF92FF920F931F93DF93CF93CDB77E
:10134000DEB728970FB6F894DEBF0FBECDBF9C0165
:101350004B016DB67EB68E010F5F1F4FC801B901FC
:101360000E94350B89819A812DB73EB7281B390B16
:101370000FB6F8943EBF0FBE2DBFEDB6FEB6089473
:10138000E11CF11C3E2C2F2C6701AA24BB24280150
:1013900041C0C2010E943F0A161617061806190618
:1013A0000CF03EC06E377105810591051CF4D60125
:1013B0006C932AC02FEFF601208300E010E00BC0F1
:1013C000FD01E459FF4FE491D601EC930F5F1F4FED
:1013D00008381105C9F0D801AA0FBB1FAA0FBB1FFF
:1013E000A00FB11FFD01E859FF4F2591359145919F
:1013F0005491621773078407950730F02617370753
:101400004807590719F7DCCF0894A11CB11C0894B0
:10141000C11CD11C89819A81A816B90608F4B9CFDC
:10142000EA0CFB1CF7011082C401632D722D0E948F
:101430001F10182F092FCE0101960E942F0B812F0C
:10144000902F0FB6F8947EBE0FBE6DBE28960FB6D5
:10145000F894DEBF0FBECDBFCF91DF911F910F91EA
:10146000FF90EF90DF90CF90BF90AF909F908F90C4
:101470007F906F905F904F903F902F900895AF9224
:10148000BF92CF92DF92EF92FF920F931F93CF9371
:10149000DF93EC01EC81FD814E815F81E40FF51F4C
:1014A000908197FD09C0E92EFF24E7FCF0940F2DF1
:1014B0001F2D4F5F5F4F2DC0292F332727FD3095FC
:1014C00025FD2AC08181E82EFF24E7FCF0940F2D32
:1014D0001F2D3FE3A32EB12CC12CD12CEA20FB20E1
:1014E0000C211D21892F992787FD9095A92FB92FB0
:1014F0008F719070A070B07026E0880F991FAA1F9E
:10150000BB1F2A95D1F7E82AF92A0A2B1B2B4E5F1D
:101510005F4F5F834E838DC024FD3BC08281E82EE8
:10152000FF24E7FCF0940F2D1F2DAFE3AA2EB12C62
:10153000C12CD12CEA20FB200C211D21892F9927B9
:1015400087FD9095A92FB92F7CE0880F991FAA1FBE
:10155000BB1F7A95D1F7A070B070E82AF92A0A2B40
:101560001B2B8181992787FD9095A92FB92F8F7308
:101570009070A070B07066E0880F991FAA1FBB1F03
:101580006A95D1F7E82AF92A0A2B1B2B4D5F5F4F8A
:10159000C0CF23FD4EC08381E82EFF24E7FCF094EA
:1015A0000F2D1F2D2FE330E040E050E0E222F32228
:1015B00004231523892F992787FD9095A92FB92FEB
:1015C00087709070A070B07042E1880F991FAA1FB9
:1015D000BB1F4A95D1F7E82AF92A0A2B1B2B8181D8
:1015E000992787FD9095A92FB92F8F739070A070C0
:1015F000B0703CE0880F991FAA1FBB1F3A95D1F726
:10160000E82AF92A0A2B1B2B8281992787FD9095BE
:10161000A92FB92F8F739070A070B07026E0880F3B
:10162000991FAA1FBB1F2A95D1F7E82AF92A0A2B6E
:101630001B2B2E813F818A819B812817390710F04F
:101640001F821E82B701C801DF91CF911F910F91B8
:10165000FF90EF90DF90CF90BF90AF900895FC0186
:10166000848195810E948B020895CF93DF93EC01D2
:10167000CB01FB0101900020E9F73197E61BF70B46
:10168000FB83EA830E94E3028C839D831982188284
:101690001F821E8234C0EC81FD81E20FF31FE081C6
:1016A000E7FD06C08881998101969983888322C0CD
:1016B000FF27E7FDF095E5FD08C088819981019637
:1016C000998388832F5F3F4F13C0E4FD08C0888152
:1016D00099810196998388832E5F3F4F09C0E3FD6E
:1016E00009C0888199810196998388832D5F3F4F36
:1016F0003F832E838E819F8101969F838E832E81CF
:101700003F818A819B812817390728F21F821E8218
:10171000DF91CF9108950F931F938C01FC01868177
:1017200060E00E942B0F81E090E00E94A70EF8017C
:10173000868161E00E942B0F81E090E00E94A70E5D
:10174000F801868160E00E942B0F84E690E00E9401
:10175000A70E1F910F910895CF92DF92EF92FF9203
:101760000F931F93CF93DF93D82EC92E282F392F95
:10177000C9018C01C0E0D0E0E62EFF24F80187818A
:1017800061E00E94EC0EB7010C2E02C075956795C2
:101790000A94E2F76170F80187810E942B0F21966D
:1017A0000F5F1F4FC830D10549F78D2D9C2D0E942A
:1017B0008B0BDF91CF911F910F91FF90EF90DF90F6
:1017C000CF900895CF92DF92EF92FF920F931F93E5
:1017D000CF93DF93D82EC92E282F392FC9018C0122
:1017E000C0E0D0E0E62EFF24F801878161E00E948E
:1017F000EC0EB7010C2E02C0759567950A94E2F7BE
:101800006170F80187810E942B0F21960F5F1F4F97
:10181000C430D10549F78D2D9C2D0E948B0BDF9193
:10182000CF911F910F91FF90EF90DF90CF9008958F
:101830001F93CF93DF93EC01162F8C81642F0E94AE
:101840002B0F8D818F3F19F060E00E942B0F8F8549
:1018500084FF05C0CE01612F0E94AC0B0EC0612F2A
:1018600070E084E0759567958A95E1F7CE010E9456
:10187000E20BCE01612F0E94E20BDF91CF911F910D
:10188000089541E00E94180C81E090E0089540E046
:101890000E94180C0895FC016089862F8460808B5B
:1018A0006C60CF010E94470C0895DF93CF93CDB7B2
:1018B000DEB728970FB6F894DEBF0FBECDBF9C01F0
:1018C000FE013196A9EBB1E088E00D9001928150C4
:1018D000E1F7F9018389481710F0482F4150E42FB0
:1018E000F0E0EE0FFF1FEC0FFD1F8181680F6068B5
:1018F000C9010E94470C28960FB6F894DEBF0FBEB0
:10190000CDBFCF91DF91089561E00E94470C80ED3B
:1019100097E00E94A70E0895CF93DF93EC01423029
:1019200018F08F8588608F874B8B1C8A222329F0C3
:10193000413019F48F8584608F8780E593EC0E9495
:10194000A70E8C8160E00E942B0F8E8160E00E94C8
:101950002B0F8D818F3F19F060E00E942B0F6F8558
:1019600064FD1DC0CE0163E00E94E20B84E991E1B9
:101970000E94A70ECE0163E00E94E20B84E991E190
:101980000E94A70ECE0163E00E94E20B86E990E080
:101990000E94A70ECE0162E00E94E20B16C06062B8
:1019A000CE010E94470C84E991E10E94A70E6F8549
:1019B0006062CE010E94470C86E990E00E94A70E6B
:1019C0006F856062CE010E94470C6F856062CE0118
:1019D0000E94470C84E0888BCE010E944B0CCE0104
:1019E0000E94840C82E0898BCE0166E00E94470C45
:1019F000DF91CF9108956F927F928F92AF92CF92A5
:101A0000EF920F931F93DF93CF93CDB7DEB73C01D7
:101A1000162F842FF301448325830683E782C08633
:101A2000A18682869D8593879E8594879F859587CD
:101A30009889968761E00E94EC0EF30185818F3FC3
:101A400019F061E00E94EC0EF301868161E00E94D2
:101A5000EC0E112319F0F301178603C080E1F301A6
:101A60008787C30160E141E020E00E948C0CCF91A8
:101A7000DF911F910F91EF90CF90AF908F907F905B
:101A80006F9008958F92AF92CF92EF920F931F9322
:101A9000CF93DF93DC01362F542F722F102FAE2CF3
:101AA0008C2C13961C921E92129785EB91E0119646
:101AB0009C938E9300D000D0EDB7FEB73196CDB792
:101AC000DEB71982118212821382CD0161E0432FA9
:101AD0002FEF052FE72EC12E0E94FB0C0F900F90C9
:101AE0000F900F90DF91CF911F910F91EF90CF90BA
:101AF000AF908F900895823000F5E82FF0E0EE0F60
:101B0000FF1FEB51FE4F71836083882319F08130F2
:101B1000A1F408C0809169008C7F842B80936900B8
:101B2000E89A089580916900440F551F440F551F8E
:101B3000837F842B80936900E99A08951F920F9206
:101B40000FB60F9211242F933F934F935F936F9390
:101B50007F938F939F93AF93BF93EF93FF93809166
:101B6000E5019091E601892B29F0E091E501F091E2
:101B7000E6010995FF91EF91BF91AF919F918F91F0
:101B80007F916F915F914F913F912F910F900FBE79
:101B90000F901F9018951F920F920FB60F9211245D
:101BA0002F933F934F935F936F937F938F939F9365
:101BB000AF93BF93EF93FF938091E7019091E8017A
:101BC000892B29F0E091E701F091E8010995FF9157
:101BD000EF91BF91AF919F918F917F916F915F91A5
:101BE0004F913F912F910F900FBE0F901F9018951E
:101BF0001F920F920FB60F9211242F933F938F9342
:101C00009F93AF93BF938091ED019091EE01A091CE
:101C1000EF01B091F0013091F1010196A11DB11DCC
:101C2000232F2D5F2D3720F02D570196A11DB11DBB
:101C30002093F1018093ED019093EE01A093EF01C9
:101C4000B093F0018091E9019091EA01A091EB013C
:101C5000B091EC010196A11DB11D8093E901909313
:101C6000EA01A093EB01B093EC01BF91AF919F917A
:101C70008F913F912F910F900FBE0F901F9018954D
:101C80008FB7F8942091ED013091EE014091EF0172
:101C90005091F0018FBFB901CA0108959B01AC01B9
:101CA0007FB7F8948091E9019091EA01A091EB014E
:101CB000B091EC0166B5A89B05C06F3F19F0019685
:101CC000A11DB11D7FBFBA2FA92F982F8827860F7E
:101CD000911DA11DB11D62E0880F991FAA1FBB1F96
:101CE0006A95D1F7BC012DC0FFB7F8948091E90146
:101CF0009091EA01A091EB01B091EC01E6B5A89BAF
:101D000005C0EF3F19F00196A11DB11DFFBFBA2F0D
:101D1000A92F982F88278E0F911DA11DB11DE2E0DC
:101D2000880F991FAA1FBB1FEA95D1F7861B970B37
:101D3000885E9340C8F22150304040405040685186
:101D40007C4F211531054105510571F60895019724
:101D500039F0880F991F880F991F02970197F1F7A3
:101D60000895789484B5826084BD84B5816084BD13
:101D700085B5826085BD85B5816085BDEEE6F0E004
:101D8000808181608083E1E8F0E010828081826060
:101D90008083808181608083E0E8F0E080818160E1
:101DA0008083E1EBF0E0808184608083E0EBF0E011
:101DB000808181608083EAE7F0E0808184608083B5
:101DC000808182608083808181608083808180685F
:101DD00080831092C1000895CF93DF93482F50E085
:101DE000CA018E5B9C4FFC013491425D5C4FFA014D
:101DF0008491882369F190E0880F991FFC01E05FCE
:101E0000FC4FA591B491FC01E65EFC4FC591D491C5
:101E1000662351F42FB7F8948C91932F90958923D2
:101E20008C93888189230BC0623061F42FB7F894BA
:101E30008C91932F909589238C938881832B888311
:101E40002FBF06C09FB7F8948C91832B8C939FBFB4
:101E5000DF91CF910895482F50E0CA018A5A9C4FD4
:101E6000FC012491CA018E5B9C4FFC019491425D60
:101E70005C4FFA013491332309F440C0222351F11D
:101E8000233071F0243028F42130A1F0223011F5F4
:101E900014C02630B1F02730C1F02430D9F404C08A
:101EA000809180008F7703C0809180008F7D809328
:101EB000800010C084B58F7702C084B58F7D84BD4B
:101EC00009C08091B0008F7703C08091B0008F7DF2
:101ED0008093B000E32FF0E0EE0FFF1FE65EFC4FB3
:101EE000A591B4912FB7F894662321F48C91909525
:101EF000892302C08C91892B8C932FBF0895682F62
:101F000070E0CB018A5A9C4FFC012491CB018E5B7F
:101F10009C4FFC014491625D7C4FFB01949199239D
:101F200019F420E030E03CC0222351F1233071F05D
:101F3000243028F42130A1F0223011F514C02630CD
:101F4000B1F02730C1F02430D9F404C08091800072
:101F50008F7703C0809180008F7D8093800010C0B8
:101F600084B58F7702C084B58F7D84BD09C0809110
:101F7000B0008F7703C08091B0008F7D8093B00058
:101F8000892F90E0880F991F8C5D9C4FFC01A591D3
:101F9000B4918C9120E030E0842311F021E030E016
:101FA000C9010895CF93DF930E94B10E0E946E097C
:101FB000C0E0D0E00E9453092097E1F30E940000A6
:101FC000F9CFCF92DF92EF92FF920F931F93CF93AF
:101FD000DF937C016B018A01C0E0D0E00FC0D60125
:101FE0006D916D01D701ED91FC910190F081E02D93
:101FF000C7010995C80FD91F0150104001151105DF
:1020000071F7CE01DF91CF911F910F91FF90EF906B
:10201000DF90CF900895CF93DF93DB010D900020E8
:10202000E9F71197A61BB70BEC01E881F981028053
:10203000F381E02DAD010995DF91CF9108950E94C4
:102040000B100895813041F0813018F08230D1F4C6
:1020500009C010926E00089580916F008D7F80936B
:102060006F000895809170008D7F8093700081E0F3
:102070008093B0008091B100887F84608093B1002C
:102080001092B30008951F93182F8091B00181170B
:1020900011F09FEF06C0EAE6F3E094918FEF809392
:1020A000B001892F0E942210812F60E00E942B0F27
:1020B0001F9108951F920F920FB60F9211242F9324
:1020C0003F934F935F936F937F938F939F93AF93C0
:1020D000BF93EF93FF938091000290910102A09132
:1020E0000202B09103020097A105B10551F1E09100
:1020F0000402F09105028081909106028927808375
:102100008091000290910102A0910202B09103021D
:10211000181619061A061B06C4F480910002909145
:102120000102A0910202B09103020197A109B10935
:102130008093000290930102A0930202B0930302E5
:1021400004C08091B0010E944310FF91EF91BF91B4
:10215000AF919F918F917F916F915F914F913F913F
:102160002F910F900FBE0F901F9018952F923F92B6
:102170005F926F927F928F929F92AF92BF92CF9217
:10218000DF92EF92FF920F931F93DF93CF9300D0D4
:1021900000D0CDB7DEB7A82F1B0129833A834B832C
:1021A0005C838091B0018A1721F4EAE6F3E0549051
:1021B00082C08F3F09F0DAC1A093B001EAE6F3E0F4
:1021C00054902FEF521609F4D1C181E0581639F11D
:1021D00092E0591609F449C0552009F06CC014BCAE
:1021E00015BC84B5826084BD85B5816085BD2A2F0C
:1021F00030E0F901E25DFC4FE491F0E0EE0FFF1FEB
:10220000E65EFC4F859194919093F7018093F601DF
:102210002E5B3C4FF90184918093F8014EC01092DF
:1022200080001092810080918100886080938100FD
:10223000809181008160809381002A2F30E0F90134
:10224000E25DFC4FE491F0E0EE0FFF1FE65EFC4F15
:10225000859194919093FE018093FD012E5B3C4FFC
:10226000F90184918093FF0128C01092B000109270
:10227000B1008091B00082608093B0008091B10085
:1022800081608093B1002A2F30E0F901E25DFC4FBC
:10229000E491F0E0EE0FFF1FE65EFC4F8591949114
:1022A00090930502809304022E5B3C4FF9018491C8
:1022B0008093060202C057FC59C18A2F61E00E9438
:1022C000EC0E552021F0F2E05F1609F0BEC031019E
:1022D0008824992460E072E18AE790E0A4019301E8
:1022E0000E940D1359016A01860175010894E108E5
:1022F000F108010911092FEFE216F104010511059A
:1023000009F008F499C060E472E48FE090E0A40161
:1023100093010E940D1379018A010894E108F108E4
:102320000109110982E05816C1F49FEFE916F10482
:102330000105110509F008F484C060E970ED83E03F
:1023400090E0A40193010E940D1379018A01089481
:10235000E108F1080109110983E0AFEFEA16F10481
:102360000105110509F008F468C068E478EE81E021
:1023700090E0A40193010E940D1379018A01089451
:10238000E108F10801091109552011F483E01DC08D
:10239000B2E05B1611F084E018C0EFEFEE16F10426
:1023A0000105110509F008F4DFC064E274EF80E074
:1023B00090E0A40193010E940D1379018A01089411
:1023C000E108F1080109110985E0FFEFEF16F104BA
:1023D0000105110591F188F162E17AE780E090E072
:1023E000A40193010E940D1379018A010894E10868
:1023F000F10801091109552011F086E001C084E0BF
:102400002FEFE216F10401051105B9F0B0F0C60195
:10241000B50120E034E040E050E00E940D13790166
:102420008A010894E108F10801091109552011F009
:1024300087E008C085E003C081E0552019F485BD20
:102440003AC082E08093B10036C05101CC24DD2433
:1024500060E072E18AE790E0A60195010E940D1309
:1024600079018A010894E108F1080109110980E065
:10247000E81680E0F80681E0080780E0180710F40D
:1024800091E010C068E478EE81E090E0A60195014B
:102490000E940D1379018A010894E108F1080109ED
:1024A000110993E0A1E05A1631F480918100887FF0
:1024B000982B9093810089819A81AB81BC81009790
:1024C000A105B10529F48FEF9FEFAFEFBFEF13C068
:1024D000220C331CB10180E090E029813A814B81CC
:1024E0005C810E94CC1228EE33E040E050E00E9474
:1024F000EB12C901DA01E1E05E16A1F0F2E05F162D
:1025000019F1552099F5E7BC8093F2019093F301FE
:10251000A093F401B093F50180916E0082608093E6
:102520006E0024C0F0928900E09288008093F90147
:102530009093FA01A093FB01B093FC0180916F008E
:10254000826080936F0012C0E092B300809300021B
:1025500090930102A0930202B09303028091700055
:1025600082608093700002C084E06CCF0F900F9067
:102570000F900F90CF91DF911F910F91FF90EF90EF
:10258000DF90CF90BF90AF909F908F907F906F9093
:102590005F903F902F900895629FD001739FF0014C
:1025A000829FE00DF11D649FE00DF11D929FF00DE3
:1025B000839FF00D749FF00D659FF00D9927729F1A
:1025C000B00DE11DF91F639FB00DE11DF91FBD01A5
:1025D000CF0111240895A1E21A2EAA1BBB1BFD01F5
:1025E0000DC0AA1FBB1FEE1FFF1FA217B307E407F2
:1025F000F50720F0A21BB30BE40BF50B661F771F4A
:10260000881F991F1A9469F7609570958095909529
:102610009B01AC01BD01CF01089597FB092E052652
:102620000ED057FD04D0D7DF0AD0001C38F45095E7
:102630004095309521953F4F4F4F5F4F0895F6F7E6
:1026400090958095709561957F4F8F4F9F4F08951E
:10265000EE0FFF1F0590F491E02D09942F923F9209
:102660004F925F926F927F928F929F92AF92BF92A2
:10267000CF92DF92EF92FF920F931F93CF93DF934E
:10268000CDB7DEB7CA1BDB0B0FB6F894DEBF0FBEAB
:10269000CDBF09942A88398848885F846E847D84F8
:1026A0008C849B84AA84B984C884DF80EE80FD80FA
:1026B0000C811B81AA81B981CE0FD11D0FB6F89470
:0E26C000DEBF0FBECDBFED010895F894FFCF31
:1026CE005465616D2025752020202020202020209B
:1026DE002000506C61796572202575202020202005
:1026EE0020202000202020427261696E2D72696EBA
:1026FE006720202000202020204A656F70617264C0
:10270E00792020202000576861743F5768657265F4
:10271E003F5768656E3F0025752E257500707265F2
:10272E006D6174757200202046616C736520737440
:10273E0061727420202000416E7377657220202014
:10274E002020202020202000436F756E743A202018
:10275E0020202020202020200041736B696E6720EE
:10276E007175657374696F6E200020000B02000096
:10277E00FF00000000410CE10F0000400014005467
:02278E00000049
:00000001FF
