:100000000C948C010C94720D0C949F0D0C94B40103
:100010000C94B4010C94B4010C94B4010C942E1003
:100020000C94B4010C94B4010C94B4010C94B4017C
:100030000C94B4010C94B4010C94B4010C94B4016C
:100040000C94CC0D0C94B4010C94B4010C94B40138
:100050000C94B4010C94B4010C94B4010C94B4014C
:100060000C94B4010C94B4017E000000E9830000FC
:1000700000CEA20000005CA7000000FDA800000068
:10008000E8AB000000C8B4000000E7B6000000FEC6
:10009000B7000000DFBB000000C9BC000000F0BDDD
:1000A000000000F2BE000000F3BF000000CDD7004A
:1000B0000000D5E7000000EBE9000000EAEB0000DB
:1000C00000B5910300004192030000429303000039
:1000D000A19503000045960300005A9703000048CD
:1000E00099030000499A0300004B9C0300004D9DBA
:1000F0000300004E9F0300004FA0030000A8A103CF
:10010000000050A403000054A503000059A60300FA
:1001100000AAA703000058BA030000BABF030000FA
:100120006FC0030000BEC10300007001040000A204
:10013000100400004111040000A01204000042134A
:10014000040000A114040000E0150400004516049A
:100150000000A317040000A418040000A51904005F
:1001600000A61A0400004B1B040000A71C0400009A
:100170004D1E0400004F1F040000A8200400005082
:100180002104000043220400005423040000A92499
:10019000040000AA250400005826040000E12704FA
:1001A0000000AB28040000AC29040000E22A04008F
:1001B00000AD2B040000AE2C040000622D040000F2
:1001C000AF2E040000B02F040000B1300400006125
:1001D00031040000B232040000B333040000B43430
:1001E000040000E3350400006536040000B637045F
:1001F0000000B738040000B839040000B93A040020
:1002000000BA3B040000BB3C040000BC3D040000FD
:10021000BD3E0400006F3F040000BE4004000070BB
:10022000410400006342040000BF4304000079441D
:10023000040000E4450400007846040000E547049B
:100240000000C048040000C149040000E64A040060
:1002500000C24B040000C34C040000C44D04000065
:10026000C54E040000C64F040000C751040000B58D
:10027000102000002E112000002E122000002E134E
:100280002000002E142000002E152000002E1C201F
:100290000000CA1D200000CB53210000F191210075
:1002A00000D993210000DAB52100007E122200005F
:1002B0002E18220000EFC5220000DF0000000024FD
:1002C0000027002A0000000000250028002B000065
:1002D0000000002300260029000404040404040490
:1002E00004020202020202030303030303010204E5
:1002F00008102040800102040810200102040810A8
:1003000020000000070002010000030406000000B6
:100310000000000000027E0511241FBECFEFD8E0D0
:10032000DEBFCDBF12E0A0E0B1E0E6E7F6E202C03A
:1003300005900D92A431B107D9F712E0A4E1B2E023
:1003400001C01D92AD35B107E1F713E0C8E1D3E07C
:1003500004C02297FE010E94FE12C631D107C9F7E0
:100360000E94A60F0C9439130C940000CF93DF93D6
:10037000BC018230910510F462E070E0A0915B0254
:10038000B0915C02ED01E0E0F0E040E050E021C01F
:10039000888199818617970769F48A819B813097B4
:1003A00019F09383828304C090935C0280935B0274
:1003B000FE0134C06817790738F44115510519F06A
:1003C0008417950708F4AC01FE018A819B819C018A
:1003D000E9012097E9F641155105A9F1CA01861BEB
:1003E000970B049708F4BA01E0E0F0E02AC08D9181
:1003F0009C91119784179507F9F46417750781F498
:1004000012968D919C911397309719F09383828364
:1004100004C090935C0280935B02FD0132964CC055
:10042000CA01861B970BFD01E80FF91F61937193B9
:1004300002978D939C9340C0FD01828193819C0122
:10044000D9011097A1F68091590290915A02892BF7
:1004500041F48091FE019091FF0190935A028093A4
:10046000590240910002509101024115510541F499
:100470004DB75EB78091FC019091FD01481B590B6F
:100480002091590230915A02CA01821B930B8617A0
:10049000970780F0AB014E5F5F4F8417950750F0D0
:1004A000420F531F50935A0240935902F90161932E
:1004B000719302C0E0E0F0E0CF01DF91CF910895A9
:1004C000CF93DF93009709F450C0EC0122971B8271
:1004D0001A82A0915B02B0915C02109709F140E092
:1004E00050E0AC17BD0708F1BB83AA83FE01219140
:1004F0003191E20FF31FAE17BF0779F48D919C91F4
:100500001197280F391F2E5F3F4F3983288312968A
:100510008D919C9113979B838A834115510571F4AA
:10052000D0935C02C0935B0220C012968D919C9187
:100530001397AD01009711F0DC01D3CFFA01D383FB
:10054000C28321913191E20FF31FCE17DF0769F4C7
:1005500088819981280F391F2E5F3F4FFA0131831F
:1005600020838A819B8193838283DF91CF91089539
:100570000F931F93CF93DF93182F092FE82FF92F95
:10058000DF010D900020E9F7CD018E1B9F0B0E942B
:10059000B601EC01009721F0612F702F0E94D60266
:1005A000CE01DF91CF911F910F910895FB01DC01E6
:1005B00001900D920020E1F70895AEE0B0E0E3EE87
:1005C000F2E00C9410130D891E8986E08C831A8347
:1005D00009838FEF9FE79E838D839E01275E3F4FA8
:1005E000CE0101966F89788DA9010E9401032F81A8
:1005F0003885020F131FF80110822E96E4E00C9448
:100600002C13ABE0B0E0E7E0F3E00C9402133C0104
:100610002B015A01FC0117821682838181FD03C0E0
:100620006FEF7FEFC6C19AE0892E1E010894211C4E
:10063000311CF3012381F20123FD859123FF819178
:100640002F01882309F4B2C1853239F423FD859145
:1006500023FF81912F01853229F490E0B3010E949C
:10066000F404E7CF982FFF24EE249924FFE1FF152F
:10067000D0F09B3269F09C3228F4903259F09332DA
:1006800091F40EC09D3249F0903369F441E024C0EA
:1006900052E0F52A84E0F82A28C098E0F92A25C01B
:1006A000E0E1FE2A22C0F7FC29C0892F80538A305E
:1006B00070F4F6FE05C0989C902C1124980E15C07D
:1006C000E89CE02C1124E80EF0E2FF2A0EC09E32D6
:1006D00029F4F6FC6BC140E4F42A07C09C3619F4F7
:1006E00050E8F52A02C0983649F4F20123FD9591AD
:1006F00023FF91912F01992309F0B8CF892F8554B9
:10070000833018F08052833038F444E050E0A40E77
:10071000B51E5FE359830FC0933631F0933779F0FC
:10072000933509F056C020C0F5018081898342E0ED
:1007300050E0A40EB51E610101E010E012C0F50109
:10074000C080D180F6FC03C06FEF7FEF02C0692D3F
:1007500070E042E050E0A40EB51EC6010E94E9041C
:100760008C015FE7F52214C0F501C080D180F6FC52
:1007700003C06FEF7FEF02C0692D70E042E050E0F0
:10078000A40EB51EC6010E94DE048C0150E8F52AB5
:10079000F3FE07C01AC080E290E0B3010E94F404A7
:1007A000EA948E2D90E008171907A8F30EC0F60101
:1007B000F7FC8591F7FE81916F0190E0B3010E94F3
:1007C000F404E110EA94015010400115110579F785
:1007D000EAC0943611F0993669F5F7FE08C0F501C4
:1007E000208131814281538184E090E00AC0F5018B
:1007F000808191819C01442737FD4095542F82E0F0
:1008000090E0A80EB91E9FE6F92257FF09C0509547
:100810004095309521953F4F4F4F5F4FE0E8FE2ABE
:10082000CA01B901A1012AE030E00E942005D82EBA
:10083000D21840C0953729F41F2D1F7E2AE030E0E2
:100840001DC01F2D197F9F3661F0903720F4983519
:1008500009F0ACC00FC0903739F0983709F0A6C046
:1008600004C028E030E00AC0106114FD146020E1EB
:1008700030E004C014FD166020E132E017FF08C02C
:10088000F501608171818281938144E050E008C06C
:10089000F50180819181BC0180E090E042E050E070
:1008A000A40EB51EA1010E942005D82ED2188FE7F4
:1008B000F82EF122F6FE0BC05EEFF522D91438F4C3
:1008C000F4FE07C0F2FC05C08FEEF82202C01D2D19
:1008D00001C0192DF4FE0DC0FE01ED0DF11D80814A
:1008E000803319F499EEF92208C01F5FF2FE05C0AB
:1008F00003C08F2D867809F01F5F0F2DF3FC14C005
:10090000F0FE0FC01E1510F09D2C0BC09D2C9E0CF0
:10091000911A1E2D06C080E290E0B3010E94F404FB
:100920001F5F1E15C0F304C01E1510F4E11A01C0AC
:10093000EE2404FF0FC080E390E0B3010E94F404B2
:1009400002FF1DC001FD03C088E790E00EC088E5EE
:1009500090E00BC0802F867891F001FF02C08BE2FF
:1009600001C080E2F7FC8DE290E0B3010E94F40444
:1009700006C080E390E0B3010E94F4049A94D91475
:10098000C0F3DA94F101ED0DF11D808190E0B30127
:100990000E94F404DD20A9F706C080E290E0B301D4
:1009A0000E94F404EA94EE20C1F743CEF30166817D
:1009B0007781CB012B96E2E10C941E13FC0105908C
:1009C000615070400110D8F7809590958E0F9F1F51
:1009D0000895FC016150704001900110D8F7809596
:1009E00090958E0F9F1F08950F931F93CF93DF93C2
:1009F0008C01EB018B8181FF1BC082FF0DC02E811A
:100A00003F818C819D812817390764F4E881F98141
:100A10000193F983E88306C0E885F985802F09955D
:100A2000892B31F48E819F8101969F838E8302C032
:100A30000FEF1FEFC801DF91CF911F910F91089524
:100A4000FA01AA27283051F1203181F1E8946F93FF
:100A50006E7F6E5F7F4F8F4F9F4FAF4FB1E03ED0A5
:100A6000B4E03CD0670F781F891F9A1FA11D680F43
:100A7000791F8A1F911DA11D6A0F711D811D911D76
:100A8000A11D20D009F468943F912AE0269F1124EB
:100A90003019305D3193DEF6CF010895462F47704F
:100AA000405D4193B3E00FD0C9F7F6CF462F4F70AA
:100AB000405D4A3318F0495D31FD4052419302D008
:100AC000A9F7EACFB4E0A6959795879577956795AE
:100AD000BA95C9F700976105710508959B01AC01AE
:100AE0000A2E06945795479537952795BA95C9F7D5
:100AF000620F731F841F951FA01D0895CF92EF9260
:100B00000F9382E292E067E048E029E00AE05BE0D0
:100B1000E52E3CE0C32E0E94160D0F91EF90CF9072
:100B200008951F93DF93CF93CDB7DEB7C154D04064
:100B30000FB6F894DEBF0FBECDBF182F82E292E051
:100B400060E040E00E94290C80911402882319F093
:100B5000813081F511C000D000D000D0EDB7FEB7D4
:100B60003196CE010196ADB7BEB712969C938E9387
:100B7000119780E091E010C000D000D000D0EDB718
:100B8000FEB73196CE010196ADB7BEB712969C93D3
:100B90008E93119789E191E0938382831483158268
:100BA0000E94DD028DB79EB706960FB6F8949EBFE1
:100BB0000FBE8DBFCE01019662E272E00E94610914
:100BC00010922102CF5BDF4F0FB6F894DEBF0FBE4D
:100BD000CDBFCF91DF911F91089582E292E060E056
:100BE00040E00E94290C80911402813041F0813054
:100BF00018F0823089F40AC080E391E002C08AE4F0
:100C000091E062E272E00E946109089583E691E05A
:100C100062E272E00E9461090895AF92BF92CF92A2
:100C2000DF92EF92FF920F931F93DF93CF93CDB795
:100C3000DEB7A1970FB6F894DEBF0FBECDBFE09030
:100C40001D02F0901E0200911F02109120028DB72C
:100C50009EB70C970FB6F8949EBF0FBE8DBFCDB652
:100C6000DEB60894C11CD11C5E010894A11CB11C05
:100C7000EDB7FEB7B282A1828FE791E0F6019383D0
:100C80008283C801B70128EE33E040E050E00E94C3
:100C9000BF12F6012483358346835783C801B70109
:100CA00028EE33E040E050E00E94BF1224E630E03E
:100CB00040E050E00E94BF12F60120873187428752
:100CC00053870E94DD028DB79EB70C960FB6F8943D
:100CD0009EBF0FBE8DBF02E212E0C80168E041E096
:100CE0000E94290CC501B8010E946109A1960FB6A6
:100CF000F894DEBF0FBECDBFCF91DF911F910F9152
:100D0000FF90EF90DF90CF90BF90AF900895EF925B
:100D1000FF920F931F937C0102E212E0C80160E092
:100D200041E00E94290CC701B8010E9461091F918E
:100D30000F91FF90EF90089582E061E00E94FF0E16
:100D400083E061E00E94FF0E8EE061E00E94FF0EF2
:100D50008FE061E00E94FF0E80E161E00E94FF0EE3
:100D600081E161E00E94FF0E82E161E00E94FF0EDE
:100D700083E161E00E94FF0E84E161E00E94FF0ECA
:100D80008DE061E00E94C00E86E061E00E94C00E2E
:100D900085E061E00E94C00E80E064ED76E042E014
:100DA00050E00E944F0D0895809121028823F9F4AC
:100DB0008EE00E94530F892B11F481E00DC08FE06B
:100DC0000E94530F892B11F482E006C080E10E943B
:100DD000530F892B21F483E080932102089581E150
:100DE0000E94530F892B19F484E080932102089507
:100DF0000E94140E2091190230911A0240911B0298
:100E000050911C02621B730B840B950B60931D02A7
:100E100070931E0280931F02909320020E940D0681
:100E20000895AF92BF92CF92DF92EF92FF920F930D
:100E30001F93DF93CF93CDB7DEB7A1970FB6F8948A
:100E4000DEBF0FBECDBF8091190290911A02A09112
:100E50001B02B0911C025E010894A11CB11C0097FA
:100E6000A105B10509F453C00E94140E7B018C0149
:100E70008091190290911A02A0911B02B0911C025C
:100E8000E81AF90A0A0B1B0BE0921D02F0921E02EF
:100E900000931F02109320028DB79EB70C970FB6D8
:100EA000F8949EBF0FBE8DBFCDB6DEB60894C11CB0
:100EB000D11CEDB7FEB7B282A1828FE791E0F601B7
:100EC00093838283C801B70128EE33E040E050E00D
:100ED0000E94BF12F6012483358346835783C801DD
:100EE000B70128EE33E040E050E00E94BF12F60167
:100EF00060877187828793870E94DD028DB79EB7D6
:100F00000C960FB6F8949EBF0FBE8DBF05C0C501ED
:100F100065E871E00E94D60282E292E068E041E07A
:100F20000E94290CCE01019662E272E00E946109E2
:100F3000A1960FB6F894DEBF0FBECDBFCF91DF9163
:100F40001F910F91FF90EF90DF90CF90BF90AF90E7
:100F500008951F93182F85E068EF76E028EE33E0C0
:100F600040E050E00E948A1086E061E00E94FF0E9F
:100F700086E991E00E948706812F0E94910568EB27
:100F80007BE080E090E00E94220E86E060E00E941C
:100F9000FF0E1F9108951F93182F86E061E00E94B5
:100FA000FF0E812F0E94910580EB91E00E94870641
:100FB0000E94110785E06BED79E028EE33E040E018
:100FC00050E00E948A101092210260ED77E080E0EC
:100FD00090E00E94220E82E10E94530F892B21F49F
:100FE0001092210280E00EC083E10E94530F892BF2
:100FF00021F41092210281E005C064E670E080E0F7
:1010000090E0E7CF1F910895EF92FF920F931F9307
:10101000CF93DF938C01009759F010921D0210922C
:101020001E0210921F02109220020E94140E0EC087
:101030000E94140E20911D0230911E0240911F0249
:1010400050912002621B730B840B950B6093190265
:1010500070931A0280931B0290931C0280911502D8
:10106000882349F085E068EB7BE028EE33E040E040
:1010700050E00E948A108DE061E00E94FF0E86E041
:1010800060E00E94FF0E0E94ED0586EC91E00E9458
:101090008706C8EED3E011C00E94F80669E170E04F
:1010A00080E090E00E94220E83E10E94530F892B82
:1010B00021F485E06CED75E030C080912102882339
:1010C000A1F5809118029801281B31092C9FC001BD
:1010D0002D9F900D3C9F900D1124A0E0B0E0209139
:1010E0001D0230911E0240911F02509120022817CC
:1010F00039074A075B0780F25AC00E94F80669E187
:1011000070E080E090E00E94220E83E10E94530F85
:10111000892BC1F485E068EF76E024EF31E040E010
:1011200050E00E948A101FEF3AC088EE93E09C01C5
:10113000029FC001039F900D129F900D11247C010E
:1011400000E010E080912102882371F480911D025B
:1011500090911E02A0911F02B09120028E159F0552
:10116000A007B10750F22DC00E94CB07182F88238B
:10117000B1F08DE060E00E94FF0E86E060E00E942A
:10118000FF0E1092190210921A0210921B02109276
:101190001C0268EE73E080E090E00E94220E812F36
:1011A000DF91CF911F910F91FF90EF90089585E00F
:1011B00069E478E028EE33E040E050E00E948A10D5
:1011C000B4CF85E068EB7BE028EE33E040E050E010
:1011D0000E948A101FEFCDCF8DE060E00E94FF0ECD
:1011E00086E060E00E94FF0E8DED91E00E94870690
:1011F00090912102992359F080911502882321F0C2
:10120000892F0E94A90703C0892F0E94CB0782E182
:101210000E94530F892B79F48091160290E00E946E
:1012200004088823A1F48091170290E00E9404082A
:101230008823C9F3089583E10E94530F892B39F065
:1012400064E670E080E090E00E94220ED1CF089525
:10125000109221021092190210921A0210921B028F
:1012600010921C020E94ED0506C064E170E080E06F
:1012700090E00E94220E83E10E94530F892BA9F374
:101280000E94EC08089582E292E060E142E020E0F2
:101290000E94600C0E949C0610921D0210921E0279
:1012A00010921F021092200281E08093140210928B
:1012B000150285E08093160280931702109218029F
:1012C00008952F923F924F925F926F927F928F92EA
:1012D0009F92AF92BF92CF92DF92EF92FF920F93C5
:1012E0001F93DF93CF93CDB7DEB728970FB6F8944F
:1012F000DEBF0FBECDBF9C014B016DB67EB68E0129
:101300000F5F1F4FC801B9010E94090B89819A81A3
:101310002DB73EB7281B390B0FB6F8943EBF0FBE52
:101320002DBFEDB6FEB60894E11CF11C3E2C2F2C0F
:101330006701AA24BB24280141C0C2010E94130AEC
:1013400016161706180619060CF03EC06E37710502
:10135000810591051CF4D6016C932AC02FEFF6018C
:10136000208300E010E00BC0FD01E459FF4FE49141
:10137000D601EC930F5F1F4F07371105C9F0D80155
:10138000AA0FBB1FAA0FBB1FA00FB11FFD01E85979
:10139000FF4F25913591459154916217730784074A
:1013A000950730F0261737074807590719F7DCCF9C
:1013B0000894A11CB11C0894C11CD11C89819A817C
:1013C000A816B90608F4B9CFEA0CFB1CF701108285
:1013D000C401632D722D0E94F30F182F092FCE0127
:1013E00001960E94030B812F902F0FB6F8947EBEBA
:1013F0000FBE6DBE28960FB6F894DEBF0FBECDBFF0
:10140000CF91DF911F910F91FF90EF90DF90CF90E0
:10141000BF90AF909F908F907F906F905F904F9014
:101420003F902F900895AF92BF92CF92DF92EF92AC
:10143000FF920F931F93CF93DF93EC01EC81FD811B
:101440004E815F81E40FF51F908197FD09C0E92E61
:10145000FF24E7FCF0940F2D1F2D4F5F5F4F2DC031
:10146000292F332727FD309525FD2AC08181E82EBD
:10147000FF24E7FCF0940F2D1F2D3FE3A32EB12C8A
:10148000C12CD12CEA20FB200C211D21892F99276A
:1014900087FD9095A92FB92F8F719070A070B070B3
:1014A00026E0880F991FAA1FBB1F2A95D1F7E82AAB
:1014B000F92A0A2B1B2B4E5F5F4F5F834E838DC033
:1014C00024FD3BC08281E82EFF24E7FCF0940F2D21
:1014D0001F2DAFE3AA2EB12CC12CD12CEA20FB206A
:1014E0000C211D21892F992787FD9095A92FB92FB0
:1014F0007CE0880F991FAA1FBB1F7A95D1F7A070B7
:10150000B070E82AF92A0A2B1B2B8181992787FDC5
:101510009095A92FB92F8F739070A070B07066E06E
:10152000880F991FAA1FBB1F6A95D1F7E82AF92ACD
:101530000A2B1B2B4D5F5F4FC0CF23FD4EC0838115
:10154000E82EFF24E7FCF0940F2D1F2D2FE330E051
:1015500040E050E0E222F32204231523892F99274B
:1015600087FD9095A92FB92F87709070A070B070EB
:1015700042E1880F991FAA1FBB1F4A95D1F7E82A9D
:10158000F92A0A2B1B2B8181992787FD9095A92F7A
:10159000B92F8F739070A070B0703CE0880F991FC6
:1015A000AA1FBB1F3A95D1F7E82AF92A0A2B1B2B51
:1015B0008281992787FD9095A92FB92F8F739070FD
:1015C000A070B07026E0880F991FAA1FBB1F2A9534
:1015D000D1F7E82AF92A0A2B1B2B2E813F818A8119
:1015E0009B812817390710F01F821E82B701C8019E
:1015F000DF91CF911F910F91FF90EF90DF90CF90EF
:10160000BF90AF900895FC01848195810E94600293
:101610000895CF93DF93EC01CB01FB0101900020F3
:10162000E9F73197E61BF70BFB83EA830E94B802C8
:101630008C839D83198218821F821E8234C0EC81A4
:10164000FD81E20FF31FE081E7FD06C088819981EB
:1016500001969983888322C0FF27E7FDF095E5FD79
:1016600008C0888199810196998388832F5F3F4FB5
:1016700013C0E4FD08C0888199810196998388830D
:101680002E5F3F4F09C0E3FD09C088819981019613
:10169000998388832D5F3F4F3F832E838E819F8167
:1016A00001969F838E832E813F818A819B8128179B
:1016B000390728F21F821E82DF91CF9108950F9380
:1016C0001F938C01FC01868160E00E94FF0E81E087
:1016D00090E00E947B0EF801868161E00E94FF0E7F
:1016E00081E090E00E947B0EF801868160E00E941C
:1016F000FF0E84E690E00E947B0E1F910F910895EB
:10170000CF92DF92EF92FF920F931F93CF93DF93CD
:10171000D82EC92E282F392FC9018C01C0E0D0E066
:10172000E62EFF24F801878161E00E94C00EB70118
:101730000C2E02C0759567950A94E2F76170F80166
:1017400087810E94FF0E21960F5F1F4FC830D10581
:1017500049F78D2D9C2D0E945F0BDF91CF911F913A
:101760000F91FF90EF90DF90CF900895CF92DF928E
:10177000EF92FF920F931F93CF93DF93D82EC92E32
:10178000282F392FC9018C01C0E0D0E0E62EFF24BC
:10179000F801878161E00E94C00EB7010C2E02C0E3
:1017A000759567950A94E2F76170F80187810E9448
:1017B000FF0E21960F5F1F4FC430D10549F78D2DC5
:1017C0009C2D0E945F0BDF91CF911F910F91FF9095
:1017D000EF90DF90CF9008951F93CF93DF93EC01AC
:1017E000162F8C81642F0E94FF0E8D818F3F19F080
:1017F00060E00E94FF0E8F8584FF05C0CE01612F3F
:101800000E94800B0EC0612F70E084E07595679593
:101810008A95E1F7CE010E94B60BCE01612F0E949E
:10182000B60BDF91CF911F91089541E00E94EC0B20
:1018300081E090E0089540E00E94EC0B0895FC01E7
:101840006089862F8460808B6C60CF010E941B0CA6
:101850000895DF93CF93CDB7DEB728970FB6F894EE
:10186000DEBF0FBECDBF9C01FE013196ABE0B2E002
:1018700088E00D9001928150E1F7F90183894817C2
:1018800010F0482F4150E42FF0E0EE0FFF1FEC0F57
:10189000FD1F8181680F6068C9010E941B0C28969A
:1018A0000FB6F894DEBF0FBECDBFCF91DF91089584
:1018B00061E00E941B0C80ED97E00E947B0E089572
:1018C000CF93DF93EC01423018F08F8588608F87CB
:1018D0004B8B1C8A222329F0413019F48F858460B8
:1018E0008F8780E593EC0E947B0E8C8160E00E94E4
:1018F000FF0E8E8160E00E94FF0E8D818F3F19F0F8
:1019000060E00E94FF0E6F8564FD1DC0CE0163E0A4
:101910000E94B60B84E991E10E947B0ECE0163E048
:101920000E94B60B84E991E10E947B0ECE0163E038
:101930000E94B60B86E990E00E947B0ECE0162E029
:101940000E94B60B16C06062CE010E941B0C84E997
:1019500091E10E947B0E6F856062CE010E941B0C9C
:1019600086E990E00E947B0E6F856062CE010E9446
:101970001B0C6F856062CE010E941B0C84E0888B7B
:10198000CE010E941F0CCE010E94580C82E0898B70
:10199000CE0166E00E941B0CDF91CF9108956F92FB
:1019A0007F928F92AF92CF92EF920F931F93DF931C
:1019B000CF93CDB7DEB73C01162F842FF3014483BC
:1019C00025830683E782C086A18682869D859387CC
:1019D0009E8594879F8595879889968761E00E9468
:1019E000C00EF30185818F3F19F061E00E94C00EA7
:1019F000F301868161E00E94C00E112319F0F3010A
:101A0000178603C080E1F3018787C30160E141E0ED
:101A100020E00E94600CCF91DF911F910F91EF9019
:101A2000CF90AF908F907F906F9008958F92AF92EC
:101A3000CF92EF920F931F93CF93DF93DC01362F5A
:101A4000542F722F102FAE2C8C2C13961C921E929A
:101A5000129787E092E011969C938E9300D000D06D
:101A6000EDB7FEB73196CDB7DEB71982118212827B
:101A70001382CD0161E0432F2FEF052FE72EC12EFA
:101A80000E94CF0C0F900F900F900F90DF91CF918D
:101A90001F910F91EF90CF90AF908F90089582306B
:101AA00000F5E82FF0E0EE0FFF1FE95CFD4F7183BA
:101AB0006083882319F08130A1F408C08091690007
:101AC0008C7F842B80936900E89A08958091690047
:101AD000440F551F440F551F837F842B809369004B
:101AE000E99A08951F920F920FB60F9211242F9327
:101AF0003F934F935F936F937F938F939F93AF9396
:101B0000BF93EF93FF938091370290913802892B16
:101B100029F0E0913702F09138020995FF91EF9199
:101B2000BF91AF919F918F917F916F915F914F91F5
:101B30003F912F910F900FBE0F901F9018951F92FD
:101B40000F920FB60F9211242F933F934F935F93F1
:101B50006F937F938F939F93AF93BF93EF93FF9375
:101B60008091390290913A02892B29F0E091390253
:101B7000F0913A020995FF91EF91BF91AF919F913A
:101B80008F917F916F915F914F913F912F910F9026
:101B90000FBE0F901F9018951F920F920FB60F92C5
:101BA00011242F933F938F939F93AF93BF93809173
:101BB0003F0290914002A0914102B09142023091C7
:101BC00043020196A11DB11D232F2D5F2D3720F05B
:101BD0002D570196A11DB11D2093430280933F0212
:101BE00090934002A0934102B093420280913B0245
:101BF00090913C02A0913D02B0913E020196A11D40
:101C0000B11D80933B0290933C02A0933D02B093A0
:101C10003E02BF91AF919F918F913F912F910F9075
:101C20000FBE0F901F9018958FB7F89420913F0228
:101C30003091400240914102509142028FBFB90160
:101C4000CA0108959B01AC017FB7F89480913B02D3
:101C500090913C02A0913D02B0913E0266B5A89BD6
:101C600005C06F3F19F00196A11DB11D7FBFBA2FAE
:101C7000A92F982F8827860F911DA11DB11D62E005
:101C8000880F991FAA1FBB1F6A95D1F7BC012DC0F1
:101C9000FFB7F89480913B0290913C02A0913D02E5
:101CA000B0913E02E6B5A89B05C0EF3F19F0019642
:101CB000A11DB11DFFBFBA2FA92F982F88278E0F06
:101CC000911DA11DB11DE2E0880F991FAA1FBB1F26
:101CD000EA95D1F7861B970B885E9340C8F2215096
:101CE00030404040504068517C4F2115310541053E
:101CF000510571F60895019739F0880F991F880FE3
:101D0000991F02970197F1F70895789484B582603E
:101D100084BD84B5816084BD85B5826085BD85B58F
:101D2000816085BDEEE6F0E0808181608083E1E83E
:101D3000F0E0108280818260808380818160808376
:101D4000E0E8F0E0808181608083E1EBF0E0808179
:101D500084608083E0EBF0E0808181608083EAE74B
:101D6000F0E08081846080838081826080838081D4
:101D7000816080838081806880831092C100089593
:101D8000CF93DF93482F50E0CA0183519D4FFC0150
:101D9000349147525D4FFA018491882369F190E0B4
:101DA000880F991FFC01E554FD4FA591B491FC01EA
:101DB000EB53FD4FC591D491662351F42FB7F8949E
:101DC0008C91932F909589238C93888189230BC0C4
:101DD000623061F42FB7F8948C91932F90958923FA
:101DE0008C938881832B88832FBF06C09FB7F8947C
:101DF0008C91832B8C939FBFDF91CF910895482FB7
:101E000050E0CA018F5F9C4FFC012491CA018351AD
:101E10009D4FFC01949147525D4FFA013491332359
:101E200009F440C0222351F1233071F0243028F40A
:101E30002130A1F0223011F514C02630B1F0273046
:101E4000C1F02430D9F404C0809180008F7703C0A2
:101E5000809180008F7D8093800010C084B58F7743
:101E600002C084B58F7D84BD09C08091B0008F779A
:101E700003C08091B0008F7D8093B000E32FF0E02D
:101E8000EE0FFF1FEB53FD4FA591B4912FB7F894C0
:101E9000662321F48C919095892302C08C91892B23
:101EA0008C932FBF0895682F70E0CB018F5F9C4FFC
:101EB000FC012491CB0183519D4FFC014491675259
:101EC0007D4FFB019491992319F420E030E03CC050
:101ED000222351F1233071F0243028F42130A1F075
:101EE000223011F514C02630B1F02730C1F0243073
:101EF000D9F404C0809180008F7703C08091800066
:101F00008F7D8093800010C084B58F7702C084B528
:101F10008F7D84BD09C08091B0008F7703C0809110
:101F2000B0008F7D8093B000892F90E0880F991FBB
:101F300081539D4FFC01A591B4918C9120E030E03C
:101F4000842311F021E030E0C9010895CF93DF939D
:101F50000E94850E0E944309C0E0D0E00E9428093B
:101F60002097E1F30E940000F9CFCF92DF92EF9229
:101F7000FF920F931F93CF93DF937C016B018A0134
:101F8000C0E0D0E00FC0D6016D916D01D701ED9199
:101F9000FC910190F081E02DC7010995C80FD91F70
:101FA000015010400115110571F7CE01DF91CF915D
:101FB0001F910F91FF90EF90DF90CF900895CF93F6
:101FC000DF93DB010D900020E9F71197A61BB70BFB
:101FD000EC01E881F9810280F381E02DAD010995E2
:101FE000DF91CF9108950E94DF0F0895813041F075
:101FF000813018F08230D1F409C010926E0008953B
:1020000080916F008D7F80936F00089580917000A4
:102010008D7F8093700081E08093B0008091B1004B
:10202000887F84608093B1001092B30008951F935D
:10203000182F80910202811711F09FEF06C0E5E191
:10204000F3E094918FEF80930202892F0E94F60FA4
:10205000812F60E00E94FF0E1F9108951F920F9242
:102060000FB60F9211242F933F934F935F936F936B
:102070007F938F939F93AF93BF93EF93FF93809141
:10208000520290915302A0915402B09155020097D0
:10209000A105B10551F1E0915602F09157028081FE
:1020A0009091580289278083809152029091530227
:1020B000A0915402B0915502181619061A061B0673
:1020C000C4F48091520290915302A0915402B091B5
:1020D00055020197A109B1098093520290935302CE
:1020E000A0935402B093550204C0809102020E9452
:1020F0001710FF91EF91BF91AF919F918F917F91B9
:102100006F915F914F913F912F910F900FBE0F9064
:102110001F9018952F923F925F926F927F928F92AD
:102120009F92AF92BF92CF92DF92EF92FF920F9366
:102130001F93DF93CF9300D000D0CDB7DEB7A82F89
:102140001B0129833A834B835C83809102028A17A7
:1021500021F4E5E1F3E0549082C08F3F09F0DAC149
:10216000A0930202E5E1F3E054902FEF521609F438
:10217000D1C181E0581639F192E0591609F449C0ED
:10218000552009F06CC014BC15BC84B5826084BDB8
:1021900085B5816085BD2A2F30E0F901E752FD4FFA
:1021A000E491F0E0EE0FFF1FEB53FD4F859194910A
:1021B000909349028093480223513D4FF901849145
:1021C00080934A024EC0109280001092810080914C
:1021D000810088608093810080918100816080937C
:1021E00081002A2F30E0F901E752FD4FE491F0E041
:1021F000EE0FFF1FEB53FD4F85919491909350028A
:1022000080934F0223513D4FF901849180935102F5
:1022100028C01092B0001092B1008091B00082608E
:102220008093B0008091B10081608093B1002A2F2B
:1022300030E0F901E752FD4FE491F0E0EE0FFF1FAF
:10224000EB53FD4F859194919093570280935602E2
:1022500023513D4FF90184918093580202C057FCED
:1022600059C18A2F61E00E94C00E552021F0F2E092
:102270005F1609F0BEC031018824992460E072E144
:102280008AE790E0A40193010E94E11259016A01DA
:10229000860175010894E108F108010911092FEF81
:1022A000E216F1040105110509F008F499C060E493
:1022B00072E48FE090E0A40193010E94E1127901A1
:1022C0008A010894E108F1080109110982E0581611
:1022D000C1F49FEFE916F1040105110509F008F4B6
:1022E00084C060E970ED83E090E0A40193010E9456
:1022F000E11279018A010894E108F1080109110944
:1023000083E0AFEFEA16F1040105110509F008F4C6
:1023100068C068E478EE81E090E0A40193010E9437
:10232000E11279018A010894E108F1080109110913
:10233000552011F483E01DC0B2E05B1611F084E07B
:1023400018C0EFEFEE16F1040105110509F008F4CD
:10235000DFC064E274EF80E090E0A40193010E948A
:10236000E11279018A010894E108F10801091109D3
:1023700085E0FFEFEF16F1040105110591F188F1F9
:1023800062E17AE780E090E0A40193010E94E1120B
:1023900079018A010894E108F10801091109552021
:1023A00011F086E001C084E02FEFE216F104010590
:1023B0001105B9F0B0F0C601B50120E034E040E00D
:1023C00050E00E94E11279018A010894E108F108C5
:1023D00001091109552011F087E008C085E003C00C
:1023E00081E0552019F485BD3AC082E08093B100A8
:1023F00036C05101CC24DD2460E072E18AE790E030
:10240000A60195010E94E11279018A010894E10870
:10241000F1080109110980E0E81680E0F80681E082
:10242000080780E0180710F491E010C068E478EE27
:1024300081E090E0A60195010E94E11279018A01F4
:102440000894E108F1080109110993E0A1E05A1686
:1024500031F480918100887F982B9093810089814D
:102460009A81AB81BC810097A105B10529F48FEF5A
:102470009FEFAFEFBFEF13C0220C331CB10180E020
:1024800090E029813A814B815C810E94A01228EE64
:1024900033E040E050E00E94BF12C901DA01E1E000
:1024A0005E16A1F0F2E05F1619F1552099F5E7BC30
:1024B0008093440290934502A0934602B093470252
:1024C00080916E00826080936E0024C0F09289003B
:1024D000E092880080934B0290934C02A0934D02AF
:1024E000B0934E0280916F00826080936F0012C0A3
:1024F000E092B3008093520290935302A09354024F
:10250000B09355028091700082608093700002C089
:1025100084E06CCF0F900F900F900F90CF91DF91D0
:102520001F910F91FF90EF90DF90CF90BF90AF90F1
:102530009F908F907F906F905F903F902F90089525
:10254000629FD001739FF001829FE00DF11D649F97
:10255000E00DF11D929FF00D839FF00D749FF00D23
:10256000659FF00D9927729FB00DE11DF91F639FC4
:10257000B00DE11DF91FBD01CF0111240895A1E2A5
:102580001A2EAA1BBB1BFD010DC0AA1FBB1FEE1FED
:10259000FF1FA217B307E407F50720F0A21BB30B38
:1025A000E40BF50B661F771F881F991F1A9469F7B4
:1025B00060957095809590959B01AC01BD01CF0110
:1025C000089597FB092E05260ED057FD04D0D7DFBE
:1025D0000AD0001C38F450954095309521953F4F16
:1025E0004F4F5F4F0895F6F79095809570956195E0
:1025F0007F4F8F4F9F4F0895EE0FFF1F0590F4916F
:10260000E02D09942F923F924F925F926F927F92AA
:102610008F929F92AF92BF92CF92DF92EF92FF92F2
:102620000F931F93CF93DF93CDB7DEB7CA1BDB0B9E
:102630000FB6F894DEBF0FBECDBF09942A88398843
:1026400048885F846E847D848C849B84AA84B9844A
:10265000C884DF80EE80FD800C811B81AA81B98156
:10266000CE0FD11D0FB6F894DEBF0FBECDBFED016A
:062670000895F894FFCF6D
:10267600D09AD0BED0BCD0B0D0BDD0B4D0B020257A
:10268600752020202020202000D098D0B3D180D0E3
:10269600BED0BA2025752020202020202020200012
:1026A600202020D091D180D0B5D0B9D0BD2DD180F9
:1026B600D0B8D0BDD0B320202000202020D0A1D07B
:1026C600B2D0BED18F20D0B8D0B3D180D0B0202028
:1026D600202000D0A7D182D0BE3F20D093D0B4D046
:1026E600B53F20D09AD0BED0B3D0B4D0B03F0025ED
:1026F600752E257500D0B4D0BED181D180D0BED183
:1027060087D0BDD0BE00202020D0A4D0B0D0BBD171
:102716008CD181D182D0B0D180D1822020202000DE
:10272600D09ED182D0B2D0B5D182202020202020C8
:10273600202020202000D09ED182D181D187D19126
:10274600D1823A20202020202020202000D097D09F
:10275600B0D0B4D0B0D191D182D181D18F20D0B2B6
:10276600D0BED0BFD180D0BED181200020005D0276
:102776000000FF00000000150CB50F00004000141B
:0427860000540000FB
:00000001FF
